{
  "contractName": "ChefLink",
  "abi": [
    {
      "anonymous": false,
      "inputs": [
        {
          "indexed": true,
          "internalType": "address",
          "name": "user",
          "type": "address"
        },
        {
          "indexed": true,
          "internalType": "uint256",
          "name": "pid",
          "type": "uint256"
        },
        {
          "indexed": false,
          "internalType": "uint256",
          "name": "amount",
          "type": "uint256"
        }
      ],
      "name": "Deposit",
      "type": "event"
    },
    {
      "anonymous": false,
      "inputs": [
        {
          "indexed": true,
          "internalType": "address",
          "name": "user",
          "type": "address"
        },
        {
          "indexed": true,
          "internalType": "uint256",
          "name": "pid",
          "type": "uint256"
        },
        {
          "indexed": false,
          "internalType": "uint256",
          "name": "amount",
          "type": "uint256"
        }
      ],
      "name": "EmergencyWithdraw",
      "type": "event"
    },
    {
      "anonymous": false,
      "inputs": [
        {
          "indexed": true,
          "internalType": "address",
          "name": "previousOwner",
          "type": "address"
        },
        {
          "indexed": true,
          "internalType": "address",
          "name": "newOwner",
          "type": "address"
        }
      ],
      "name": "OwnershipTransferred",
      "type": "event"
    },
    {
      "anonymous": false,
      "inputs": [
        {
          "indexed": true,
          "internalType": "address",
          "name": "user",
          "type": "address"
        },
        {
          "indexed": true,
          "internalType": "uint256",
          "name": "pid",
          "type": "uint256"
        },
        {
          "indexed": false,
          "internalType": "uint256",
          "name": "amount",
          "type": "uint256"
        }
      ],
      "name": "Withdraw",
      "type": "event"
    },
    {
      "inputs": [],
      "name": "BONUS_MULTIPLIER",
      "outputs": [
        {
          "internalType": "uint256",
          "name": "",
          "type": "uint256"
        }
      ],
      "stateMutability": "view",
      "type": "function",
      "constant": true
    },
    {
      "inputs": [],
      "name": "bonusEndBlock",
      "outputs": [
        {
          "internalType": "uint256",
          "name": "",
          "type": "uint256"
        }
      ],
      "stateMutability": "view",
      "type": "function",
      "constant": true
    },
    {
      "inputs": [],
      "name": "devaddr",
      "outputs": [
        {
          "internalType": "address",
          "name": "",
          "type": "address"
        }
      ],
      "stateMutability": "view",
      "type": "function",
      "constant": true
    },
    {
      "inputs": [],
      "name": "owner",
      "outputs": [
        {
          "internalType": "address",
          "name": "",
          "type": "address"
        }
      ],
      "stateMutability": "view",
      "type": "function",
      "constant": true
    },
    {
      "inputs": [
        {
          "internalType": "uint256",
          "name": "",
          "type": "uint256"
        }
      ],
      "name": "poolInfo",
      "outputs": [
        {
          "internalType": "contract IERC20",
          "name": "lpToken",
          "type": "address"
        },
        {
          "internalType": "uint256",
          "name": "allocPoint",
          "type": "uint256"
        },
        {
          "internalType": "uint256",
          "name": "lastRewardBlock",
          "type": "uint256"
        },
        {
          "internalType": "uint256",
          "name": "accSwingbyPerShare",
          "type": "uint256"
        }
      ],
      "stateMutability": "view",
      "type": "function",
      "constant": true
    },
    {
      "inputs": [],
      "name": "renounceOwnership",
      "outputs": [],
      "stateMutability": "nonpayable",
      "type": "function"
    },
    {
      "inputs": [],
      "name": "startBlock",
      "outputs": [
        {
          "internalType": "uint256",
          "name": "",
          "type": "uint256"
        }
      ],
      "stateMutability": "view",
      "type": "function",
      "constant": true
    },
    {
      "inputs": [],
      "name": "swingby",
      "outputs": [
        {
          "internalType": "contract IERC20",
          "name": "",
          "type": "address"
        }
      ],
      "stateMutability": "view",
      "type": "function",
      "constant": true
    },
    {
      "inputs": [],
      "name": "swingbyPerBlock",
      "outputs": [
        {
          "internalType": "uint256",
          "name": "",
          "type": "uint256"
        }
      ],
      "stateMutability": "view",
      "type": "function",
      "constant": true
    },
    {
      "inputs": [],
      "name": "totalAllocPoint",
      "outputs": [
        {
          "internalType": "uint256",
          "name": "",
          "type": "uint256"
        }
      ],
      "stateMutability": "view",
      "type": "function",
      "constant": true
    },
    {
      "inputs": [
        {
          "internalType": "address",
          "name": "newOwner",
          "type": "address"
        }
      ],
      "name": "transferOwnership",
      "outputs": [],
      "stateMutability": "nonpayable",
      "type": "function"
    },
    {
      "inputs": [
        {
          "internalType": "uint256",
          "name": "",
          "type": "uint256"
        },
        {
          "internalType": "address",
          "name": "",
          "type": "address"
        }
      ],
      "name": "userInfo",
      "outputs": [
        {
          "internalType": "uint256",
          "name": "amount",
          "type": "uint256"
        },
        {
          "internalType": "uint256",
          "name": "rewardDebt",
          "type": "uint256"
        }
      ],
      "stateMutability": "view",
      "type": "function",
      "constant": true
    },
    {
      "inputs": [
        {
          "internalType": "contract IERC20",
          "name": "_swingby",
          "type": "address"
        },
        {
          "internalType": "address",
          "name": "_devaddr",
          "type": "address"
        },
        {
          "internalType": "uint256",
          "name": "_swingbyPerBlock",
          "type": "uint256"
        },
        {
          "internalType": "uint256",
          "name": "_startBlock",
          "type": "uint256"
        },
        {
          "internalType": "uint256",
          "name": "_bonusEndBlock",
          "type": "uint256"
        }
      ],
      "name": "init",
      "outputs": [],
      "stateMutability": "nonpayable",
      "type": "function"
    },
    {
      "inputs": [],
      "name": "poolLength",
      "outputs": [
        {
          "internalType": "uint256",
          "name": "",
          "type": "uint256"
        }
      ],
      "stateMutability": "view",
      "type": "function",
      "constant": true
    },
    {
      "inputs": [
        {
          "internalType": "uint256",
          "name": "_allocPoint",
          "type": "uint256"
        },
        {
          "internalType": "contract IERC20",
          "name": "_lpToken",
          "type": "address"
        },
        {
          "internalType": "bool",
          "name": "_withUpdate",
          "type": "bool"
        }
      ],
      "name": "add",
      "outputs": [],
      "stateMutability": "nonpayable",
      "type": "function"
    },
    {
      "inputs": [
        {
          "internalType": "uint256",
          "name": "_pid",
          "type": "uint256"
        },
        {
          "internalType": "uint256",
          "name": "_allocPoint",
          "type": "uint256"
        },
        {
          "internalType": "bool",
          "name": "_withUpdate",
          "type": "bool"
        }
      ],
      "name": "set",
      "outputs": [],
      "stateMutability": "nonpayable",
      "type": "function"
    },
    {
      "inputs": [
        {
          "internalType": "uint256",
          "name": "_from",
          "type": "uint256"
        },
        {
          "internalType": "uint256",
          "name": "_to",
          "type": "uint256"
        }
      ],
      "name": "getMultiplier",
      "outputs": [
        {
          "internalType": "uint256",
          "name": "",
          "type": "uint256"
        }
      ],
      "stateMutability": "view",
      "type": "function",
      "constant": true
    },
    {
      "inputs": [
        {
          "internalType": "uint256",
          "name": "_pid",
          "type": "uint256"
        },
        {
          "internalType": "address",
          "name": "_user",
          "type": "address"
        }
      ],
      "name": "pendingSwingby",
      "outputs": [
        {
          "internalType": "uint256",
          "name": "",
          "type": "uint256"
        }
      ],
      "stateMutability": "view",
      "type": "function",
      "constant": true
    },
    {
      "inputs": [],
      "name": "massUpdatePools",
      "outputs": [],
      "stateMutability": "nonpayable",
      "type": "function"
    },
    {
      "inputs": [
        {
          "internalType": "uint256",
          "name": "_pid",
          "type": "uint256"
        }
      ],
      "name": "updatePool",
      "outputs": [],
      "stateMutability": "nonpayable",
      "type": "function"
    },
    {
      "inputs": [
        {
          "internalType": "uint256",
          "name": "_pid",
          "type": "uint256"
        },
        {
          "internalType": "uint256",
          "name": "_amount",
          "type": "uint256"
        }
      ],
      "name": "deposit",
      "outputs": [],
      "stateMutability": "nonpayable",
      "type": "function"
    },
    {
      "inputs": [
        {
          "internalType": "uint256",
          "name": "_pid",
          "type": "uint256"
        },
        {
          "internalType": "uint256",
          "name": "_amount",
          "type": "uint256"
        }
      ],
      "name": "withdraw",
      "outputs": [],
      "stateMutability": "nonpayable",
      "type": "function"
    },
    {
      "inputs": [
        {
          "internalType": "uint256",
          "name": "_pid",
          "type": "uint256"
        }
      ],
      "name": "emergencyWithdraw",
      "outputs": [],
      "stateMutability": "nonpayable",
      "type": "function"
    },
    {
      "inputs": [
        {
          "internalType": "address",
          "name": "_devaddr",
          "type": "address"
        }
      ],
      "name": "dev",
      "outputs": [],
      "stateMutability": "nonpayable",
      "type": "function"
    }
  ],
  "bytecode": "0x6080604052600060075534801561001557600080fd5b50600061002061006f565b600080546001600160a01b0319166001600160a01b0383169081178255604051929350917f8be0079c531659141344cd1fd0a4f28419497f9722a3daafe3b4186f6b6457e0908290a350610073565b3390565b6117eb806100826000396000f3fe608060405234801561001057600080fd5b50600436106101585760003560e01c8063630b5ba1116100c35780638dbb1e3a1161007c5780638dbb1e3a1461027a57806393f1a40b1461028d578063d49e77cd146102ae578063e2bbb158146102b6578063f2fde38b146102c9578063f934436e146102dc57610158565b8063630b5ba11461023457806364482f791461023c578063715018a61461024f5780638aa28550146102575780638d88a90e1461025f5780638da5cb5b1461027257610158565b80632426fdee116101155780632426fdee146101d65780632f24ee27146101eb578063441a3e70146101f357806348cd4cb11461020657806351eb05a61461020e5780635312ea8e1461022157610158565b806302c56b411461015d578063081e3eda146101865780631526fe271461018e57806317caf6f1146101b15780631aed6553146101b95780631eaaa045146101c1575b600080fd5b61017061016b366004611375565b6102ef565b60405161017d91906116b0565b60405180910390f35b610170610481565b6101a161019c366004611345565b610487565b60405161017d94939291906114a0565b6101706104cb565b6101706104d1565b6101d46101cf3660046113a4565b6104d7565b005b6101de610642565b60405161017d919061144f565b610170610651565b6101d46102013660046113e5565b610657565b610170610793565b6101d461021c366004611345565b610799565b6101d461022f366004611345565b610910565b6101d46109c3565b6101d461024a366004611406565b6109ee565b6101d4610ace565b610170610b57565b6101d461026d3660046112bd565b610b5c565b6101de610ba8565b6101706102883660046113e5565b610bb7565b6102a061029b366004611375565b610c1d565b60405161017d9291906116b9565b6101de610c41565b6101d46102c43660046113e5565b610c50565b6101d46102d73660046112bd565b610d6e565b6101d46102ea3660046112f5565b610e2e565b6000806005848154811061031357634e487b7160e01b600052603260045260246000fd5b600091825260208083208784526006825260408085206001600160a01b038981168752935280852060049485029092016003810154815492516370a0823160e01b815291975092959294929391909116916370a08231916103769130910161144f565b60206040518083038186803b15801561038e57600080fd5b505afa1580156103a2573d6000803e3d6000fd5b505050506040513d601f19601f820116820180604052508101906103c6919061135d565b90508360020154431180156103da57508015155b156104465760006103ef856002015443610bb7565b9050600061042260075461041c886001015461041660045487610ec690919063ffffffff16565b90610ec6565b90610ed9565b905061044161043a8461041c8464e8d4a51000610ec6565b8590610ee5565b935050505b610474836001015461046e64e8d4a5100061041c868860000154610ec690919063ffffffff16565b90610ef1565b9450505050505b92915050565b60055490565b6005818154811061049757600080fd5b600091825260209091206004909102018054600182015460028301546003909301546001600160a01b039092169350919084565b60075481565b60035481565b6104df610efd565b6001600160a01b03166104f0610ba8565b6001600160a01b03161461051f5760405162461bcd60e51b8152600401610516906115ce565b60405180910390fd5b801561052d5761052d6109c3565b6000600854431161054057600854610542565b435b6007549091506105529085610ee5565b600755604080516080810182526001600160a01b0394851681526020810195865290810191825260006060820181815260058054600181018255925291517f036b6384b5eca791c62761152d0c79bb0604c104a5fb6f4eb0703f3154bb3db0600490920291820180546001600160a01b031916919096161790945593517f036b6384b5eca791c62761152d0c79bb0604c104a5fb6f4eb0703f3154bb3db1840155517f036b6384b5eca791c62761152d0c79bb0604c104a5fb6f4eb0703f3154bb3db28301555090517f036b6384b5eca791c62761152d0c79bb0604c104a5fb6f4eb0703f3154bb3db390910155565b6001546001600160a01b031681565b60045481565b60006005838154811061067a57634e487b7160e01b600052603260045260246000fd5b6000918252602080832086845260068252604080852033865290925292208054600490920290920192508311156106c35760405162461bcd60e51b81526004016105169061163a565b6106cc84610799565b60006106fa826001015461046e64e8d4a5100061041c87600301548760000154610ec690919063ffffffff16565b90506107063382610f01565b81546107129085610ef1565b808355600384015461072f9164e8d4a510009161041c9190610ec6565b6001830155825461074a906001600160a01b031633866110a1565b84336001600160a01b03167ff279e6a1f5e320cca91135676d9cb6e44ca8a08c0b88342bcdb1144f6511b5688660405161078491906116b0565b60405180910390a35050505050565b60085481565b6000600582815481106107bc57634e487b7160e01b600052603260045260246000fd5b90600052602060002090600402019050806002015443116107dd575061090d565b80546040516370a0823160e01b81526000916001600160a01b0316906370a082319061080d90309060040161144f565b60206040518083038186803b15801561082557600080fd5b505afa158015610839573d6000803e3d6000fd5b505050506040513d601f19601f8201168201806040525081019061085d919061135d565b90508061087157504360029091015561090d565b6000610881836002015443610bb7565b905060006108a860075461041c866001015461041660045487610ec690919063ffffffff16565b6002549091506108d9906001600160a01b03166108c683600a610ed9565b6001546001600160a01b031691906110a1565b6108fa6108ef8461041c8464e8d4a51000610ec6565b600386015490610ee5565b6003850155505043600290920191909155505b50565b60006005828154811061093357634e487b7160e01b600052603260045260246000fd5b60009182526020808320858452600682526040808520338087529352909320805460049093029093018054909450610978926001600160a01b039190911691906110a1565b8054604051849133917fbb757047c2b5f3974fe26b7c10f732e7bce710b0952a71082702781e62ae0595916109ac916116b0565b60405180910390a360008082556001909101555050565b60055460005b818110156109ea576109da81610799565b6109e381611761565b90506109c9565b5050565b6109f6610efd565b6001600160a01b0316610a07610ba8565b6001600160a01b031614610a2d5760405162461bcd60e51b8152600401610516906115ce565b8015610a3b57610a3b6109c3565b610a8c82610a8660058681548110610a6357634e487b7160e01b600052603260045260246000fd5b906000526020600020906004020160010154600754610ef190919063ffffffff16565b90610ee5565b6007819055508160058481548110610ab457634e487b7160e01b600052603260045260246000fd5b906000526020600020906004020160010181905550505050565b610ad6610efd565b6001600160a01b0316610ae7610ba8565b6001600160a01b031614610b0d5760405162461bcd60e51b8152600401610516906115ce565b600080546040516001600160a01b03909116907f8be0079c531659141344cd1fd0a4f28419497f9722a3daafe3b4186f6b6457e0908390a3600080546001600160a01b0319169055565b600a81565b6002546001600160a01b03163314610b865760405162461bcd60e51b815260040161051690611585565b600280546001600160a01b0319166001600160a01b0392909216919091179055565b6000546001600160a01b031690565b60006003548211610bd857610bd1600a6104168486610ef1565b905061047b565b6003548310610beb57610bd18284610ef1565b610bd1610c0360035484610ef190919063ffffffff16565b610a86600a61041687600354610ef190919063ffffffff16565b60066020908152600092835260408084209091529082529020805460019091015482565b6002546001600160a01b031681565b600060058381548110610c7357634e487b7160e01b600052603260045260246000fd5b60009182526020808320868452600682526040808520338652909252922060049091029091019150610ca484610799565b805415610ce7576000610cd9826001015461046e64e8d4a5100061041c87600301548760000154610ec690919063ffffffff16565b9050610ce53382610f01565b505b8154610cfe906001600160a01b03163330866110f7565b8054610d0a9084610ee5565b8082556003830154610d279164e8d4a510009161041c9190610ec6565b6001820155604051849033907f90890809c654f11d6e72a28fa60149770a0d11ec6c92319d6ceb2bb0a4ea1a1590610d609087906116b0565b60405180910390a350505050565b610d76610efd565b6001600160a01b0316610d87610ba8565b6001600160a01b031614610dad5760405162461bcd60e51b8152600401610516906115ce565b6001600160a01b038116610dd35760405162461bcd60e51b8152600401610516906114f9565b600080546040516001600160a01b03808516939216917f8be0079c531659141344cd1fd0a4f28419497f9722a3daafe3b4186f6b6457e091a3600080546001600160a01b0319166001600160a01b0392909216919091179055565b610e36610efd565b6001600160a01b0316610e47610ba8565b6001600160a01b031614610e6d5760405162461bcd60e51b8152600401610516906115ce565b8115610e8b5760405162461bcd60e51b8152600401610516906115a8565b600180546001600160a01b039687166001600160a01b0319918216179091556002805495909616941693909317909355600455600355600855565b6000610ed282846116ff565b9392505050565b6000610ed282846116df565b6000610ed282846116c7565b6000610ed2828461171e565b3390565b6001546040516370a0823160e01b81526000916001600160a01b0316906370a0823190610f3290309060040161144f565b60206040518083038186803b158015610f4a57600080fd5b505afa158015610f5e573d6000803e3d6000fd5b505050506040513d601f19601f82011682018060405250810190610f82919061135d565b9050808211156110165760015460405163a9059cbb60e01b81526001600160a01b039091169063a9059cbb90610fbe9086908590600401611487565b602060405180830381600087803b158015610fd857600080fd5b505af1158015610fec573d6000803e3d6000fd5b505050506040513d601f19601f8201168201806040525081019061101091906112d9565b5061109c565b60015460405163a9059cbb60e01b81526001600160a01b039091169063a9059cbb906110489086908690600401611487565b602060405180830381600087803b15801561106257600080fd5b505af1158015611076573d6000803e3d6000fd5b505050506040513d601f19601f8201168201806040525081019061109a91906112d9565b505b505050565b61109c8363a9059cbb60e01b84846040516024016110c0929190611487565b60408051601f198184030181529190526020810180516001600160e01b03166001600160e01b031990931692909217909152611118565b61109a846323b872dd60e01b8585856040516024016110c093929190611463565b600061116d826040518060400160405280602081526020017f5361666545524332303a206c6f772d6c6576656c2063616c6c206661696c6564815250856001600160a01b03166111a79092919063ffffffff16565b80519091501561109c578080602001905181019061118b91906112d9565b61109c5760405162461bcd60e51b815260040161051690611666565b60606111b684846000856111be565b949350505050565b6060824710156111e05760405162461bcd60e51b81526004016105169061153f565b6111e98561127e565b6112055760405162461bcd60e51b815260040161051690611603565b600080866001600160a01b031685876040516112219190611433565b60006040518083038185875af1925050503d806000811461125e576040519150601f19603f3d011682016040523d82523d6000602084013e611263565b606091505b5091509150611273828286611284565b979650505050505050565b3b151590565b60608315611293575081610ed2565b8251156112a35782518084602001fd5b8160405162461bcd60e51b815260040161051691906114c6565b6000602082840312156112ce578081fd5b8135610ed281611792565b6000602082840312156112ea578081fd5b8151610ed2816117a7565b600080600080600060a0868803121561130c578081fd5b853561131781611792565b9450602086013561132781611792565b94979496505050506040830135926060810135926080909101359150565b600060208284031215611356578081fd5b5035919050565b60006020828403121561136e578081fd5b5051919050565b60008060408385031215611387578182fd5b82359150602083013561139981611792565b809150509250929050565b6000806000606084860312156113b8578283fd5b8335925060208401356113ca81611792565b915060408401356113da816117a7565b809150509250925092565b600080604083850312156113f7578182fd5b50508035926020909101359150565b60008060006060848603121561141a578283fd5b833592506020840135915060408401356113da816117a7565b60008251611445818460208701611735565b9190910192915050565b6001600160a01b0391909116815260200190565b6001600160a01b039384168152919092166020820152604081019190915260600190565b6001600160a01b03929092168252602082015260400190565b6001600160a01b0394909416845260208401929092526040830152606082015260800190565b60006020825282518060208401526114e5816040850160208701611735565b601f01601f19169190910160400192915050565b60208082526026908201527f4f776e61626c653a206e6577206f776e657220697320746865207a65726f206160408201526564647265737360d01b606082015260800190565b60208082526026908201527f416464726573733a20696e73756666696369656e742062616c616e636520666f6040820152651c8818d85b1b60d21b606082015260800190565b6020808252600990820152686465763a207775743f60b81b604082015260600190565b6020808252600c908201526b19985a5b19590e881a5b9a5d60a21b604082015260600190565b6020808252818101527f4f776e61626c653a2063616c6c6572206973206e6f7420746865206f776e6572604082015260600190565b6020808252601d908201527f416464726573733a2063616c6c20746f206e6f6e2d636f6e7472616374000000604082015260600190565b6020808252601290820152711dda5d1a191c985dce881b9bdd0819dbdbd960721b604082015260600190565b6020808252602a908201527f5361666545524332303a204552433230206f7065726174696f6e20646964206e6040820152691bdd081cdd58d8d9595960b21b606082015260800190565b90815260200190565b918252602082015260400190565b600082198211156116da576116da61177c565b500190565b6000826116fa57634e487b7160e01b81526012600452602481fd5b500490565b60008160001904831182151516156117195761171961177c565b500290565b6000828210156117305761173061177c565b500390565b60005b83811015611750578181015183820152602001611738565b8381111561109a5750506000910152565b60006000198214156117755761177561177c565b5060010190565b634e487b7160e01b600052601160045260246000fd5b6001600160a01b038116811461090d57600080fd5b801515811461090d57600080fdfea2646970667358221220922038251ee57a4b913251ab17ca97ffebc9ce66a9a6f8cdeaa4ef86aace6fae64736f6c63430008000033",
  "immutableReferences": {},
  "source": "// SPDX-License-Identifier: MIT\npragma solidity 0.8.0;\n\nimport \"@openzeppelin/contracts/token/ERC20/IERC20.sol\";\nimport \"@openzeppelin/contracts/token/ERC20/utils/SafeERC20.sol\";\nimport \"@openzeppelin/contracts/utils/structs/EnumerableSet.sol\";\nimport \"@openzeppelin/contracts/utils/math/SafeMath.sol\";\nimport \"@openzeppelin/contracts/access/Ownable.sol\";\n\ncontract ChefLink is Ownable {\n    using SafeMath for uint256;\n    using SafeERC20 for IERC20;\n    // Info of each user.\n    struct UserInfo {\n        uint256 amount; // How many LP tokens the user has provided.\n        uint256 rewardDebt; // Reward debt. See explanation below.\n        //\n        // We do some fancy math here. Basically, any point in time, the amount of SWINGBYs\n        // entitled to a user but is pending to be distributed is:\n        //\n        //   pending reward = (user.amount * pool.accSushiPerShare) - user.rewardDebt\n        //\n        // Whenever a user deposits or withdraws LP tokens to a pool. Here's what happens:\n        //   1. The pool's `accSwingbyPerShare` (and `lastRewardBlock`) gets updated.\n        //   2. User receives the pending reward sent to his/her address.\n        //   3. User's `amount` gets updated.\n        //   4. User's `rewardDebt` gets updated.\n    }\n    // Info of each pool.\n    struct PoolInfo {\n        IERC20 lpToken; // Address of LP token contract.\n        uint256 allocPoint; // How many allocation points assigned to this pool. SWINGBYs to distribute per block.\n        uint256 lastRewardBlock; // Last block number that SWINGBYs distribution occurs.\n        uint256 accSwingbyPerShare; // Accumulated SUSHIs per share, times 1e12. See below.\n    }\n    // The SWINGBY TOKEN!\n    IERC20 public swingby;\n    // Dev address.\n    address public devaddr;\n    // Block number when bonus SWINGBY period ends.\n    uint256 public bonusEndBlock;\n    // SWINGBY tokens created per block.\n    uint256 public swingbyPerBlock;\n    // Bonus muliplier for early sushi makers.\n    uint256 public constant BONUS_MULTIPLIER = 10;\n    // Info of each pool.\n    PoolInfo[] public poolInfo;\n    // Info of each user that stakes LP tokens.\n    mapping(uint256 => mapping(address => UserInfo)) public userInfo;\n    // Total allocation poitns. Must be the sum of all allocation points in all pools.\n    uint256 public totalAllocPoint = 0;\n    // The block number when SWINGBY mining starts.\n    uint256 public startBlock;\n    event Deposit(address indexed user, uint256 indexed pid, uint256 amount);\n    event Withdraw(address indexed user, uint256 indexed pid, uint256 amount);\n    event EmergencyWithdraw(\n        address indexed user,\n        uint256 indexed pid,\n        uint256 amount\n    );\n\n    function init(\n        IERC20 _swingby,\n        address _devaddr,\n        uint256 _swingbyPerBlock,\n        uint256 _startBlock,\n        uint256 _bonusEndBlock\n    ) public onlyOwner {\n        require(_startBlock == 0, \"failed: init\");\n        swingby = _swingby;\n        devaddr = _devaddr;\n        swingbyPerBlock = _swingbyPerBlock;\n        bonusEndBlock = _bonusEndBlock;\n        startBlock = _startBlock;\n    }\n\n    function poolLength() external view returns (uint256) {\n        return poolInfo.length;\n    }\n\n    // Add a new lp to the pool. Can only be called by the owner.\n    // XXX DO NOT add the same LP token more than once. Rewards will be messed up if you do.\n    function add(\n        uint256 _allocPoint,\n        IERC20 _lpToken,\n        bool _withUpdate\n    ) public onlyOwner {\n        if (_withUpdate) {\n            massUpdatePools();\n        }\n        uint256 lastRewardBlock =\n            block.number > startBlock ? block.number : startBlock;\n        totalAllocPoint = totalAllocPoint.add(_allocPoint);\n        poolInfo.push(\n            PoolInfo({\n                lpToken: _lpToken,\n                allocPoint: _allocPoint,\n                lastRewardBlock: lastRewardBlock,\n                accSwingbyPerShare: 0\n            })\n        );\n    }\n\n    // Update the given pool's SUSHI allocation point. Can only be called by the owner.\n    function set(\n        uint256 _pid,\n        uint256 _allocPoint,\n        bool _withUpdate\n    ) public onlyOwner {\n        if (_withUpdate) {\n            massUpdatePools();\n        }\n        totalAllocPoint = totalAllocPoint.sub(poolInfo[_pid].allocPoint).add(\n            _allocPoint\n        );\n        poolInfo[_pid].allocPoint = _allocPoint;\n    }\n\n    // Return reward multiplier over the given _from to _to block.\n    function getMultiplier(uint256 _from, uint256 _to)\n        public\n        view\n        returns (uint256)\n    {\n        if (_to <= bonusEndBlock) {\n            return _to.sub(_from).mul(BONUS_MULTIPLIER);\n        } else if (_from >= bonusEndBlock) {\n            return _to.sub(_from);\n        } else {\n            return\n                bonusEndBlock.sub(_from).mul(BONUS_MULTIPLIER).add(\n                    _to.sub(bonusEndBlock)\n                );\n        }\n    }\n\n    // View function to see pending SWINGBYs on frontend.\n    function pendingSwingby(uint256 _pid, address _user)\n        external\n        view\n        returns (uint256)\n    {\n        PoolInfo storage pool = poolInfo[_pid];\n        UserInfo storage user = userInfo[_pid][_user];\n        uint256 accSwingbyPerShare = pool.accSwingbyPerShare;\n        uint256 lpSupply = pool.lpToken.balanceOf(address(this));\n        if (block.number > pool.lastRewardBlock && lpSupply != 0) {\n            uint256 multiplier =\n                getMultiplier(pool.lastRewardBlock, block.number);\n            uint256 swingbyReward =\n                multiplier.mul(swingbyPerBlock).mul(pool.allocPoint).div(\n                    totalAllocPoint\n                );\n            accSwingbyPerShare = accSwingbyPerShare.add(\n                swingbyReward.mul(1e12).div(lpSupply)\n            );\n        }\n        return\n            user.amount.mul(accSwingbyPerShare).div(1e12).sub(user.rewardDebt);\n    }\n\n    // Update reward vairables for all pools. Be careful of gas spending!\n    function massUpdatePools() public {\n        uint256 length = poolInfo.length;\n        for (uint256 pid = 0; pid < length; ++pid) {\n            updatePool(pid);\n        }\n    }\n\n    // Update reward variables of the given pool to be up-to-date.\n    function updatePool(uint256 _pid) public {\n        PoolInfo storage pool = poolInfo[_pid];\n        if (block.number <= pool.lastRewardBlock) {\n            return;\n        }\n        uint256 lpSupply = pool.lpToken.balanceOf(address(this));\n        if (lpSupply == 0) {\n            pool.lastRewardBlock = block.number;\n            return;\n        }\n        uint256 multiplier = getMultiplier(pool.lastRewardBlock, block.number);\n        uint256 swingbyReward =\n            multiplier.mul(swingbyPerBlock).mul(pool.allocPoint).div(\n                totalAllocPoint\n            );\n        swingby.safeTransfer(devaddr, swingbyReward.div(10));\n        pool.accSwingbyPerShare = pool.accSwingbyPerShare.add(\n            swingbyReward.mul(1e12).div(lpSupply)\n        );\n        pool.lastRewardBlock = block.number;\n    }\n\n    // Deposit LP tokens to ChefLink for SWINGBYs allocation.\n    function deposit(uint256 _pid, uint256 _amount) public {\n        PoolInfo storage pool = poolInfo[_pid];\n        UserInfo storage user = userInfo[_pid][msg.sender];\n        updatePool(_pid);\n        if (user.amount > 0) {\n            uint256 pending =\n                user.amount.mul(pool.accSwingbyPerShare).div(1e12).sub(\n                    user.rewardDebt\n                );\n            safeSushiTransfer(msg.sender, pending);\n        }\n        pool.lpToken.safeTransferFrom(\n            address(msg.sender),\n            address(this),\n            _amount\n        );\n        user.amount = user.amount.add(_amount);\n        user.rewardDebt = user.amount.mul(pool.accSwingbyPerShare).div(1e12);\n        emit Deposit(msg.sender, _pid, _amount);\n    }\n\n    // Withdraw LP tokens from ChefLink.\n    function withdraw(uint256 _pid, uint256 _amount) public {\n        PoolInfo storage pool = poolInfo[_pid];\n        UserInfo storage user = userInfo[_pid][msg.sender];\n        require(user.amount >= _amount, \"withdraw: not good\");\n        updatePool(_pid);\n        uint256 pending =\n            user.amount.mul(pool.accSwingbyPerShare).div(1e12).sub(\n                user.rewardDebt\n            );\n        safeSushiTransfer(msg.sender, pending);\n        user.amount = user.amount.sub(_amount);\n        user.rewardDebt = user.amount.mul(pool.accSwingbyPerShare).div(1e12);\n        pool.lpToken.safeTransfer(address(msg.sender), _amount);\n        emit Withdraw(msg.sender, _pid, _amount);\n    }\n\n    // Withdraw without caring about rewards. EMERGENCY ONLY.\n    function emergencyWithdraw(uint256 _pid) public {\n        PoolInfo storage pool = poolInfo[_pid];\n        UserInfo storage user = userInfo[_pid][msg.sender];\n        pool.lpToken.safeTransfer(address(msg.sender), user.amount);\n        emit EmergencyWithdraw(msg.sender, _pid, user.amount);\n        user.amount = 0;\n        user.rewardDebt = 0;\n    }\n\n    // Safe swingby transfer function, just in case if rounding error causes pool to not have enough SWINGBYs.\n    function safeSushiTransfer(address _to, uint256 _amount) internal {\n        uint256 swingbyBal = swingby.balanceOf(address(this));\n        if (_amount > swingbyBal) {\n            swingby.transfer(_to, swingbyBal);\n        } else {\n            swingby.transfer(_to, _amount);\n        }\n    }\n\n    // Update dev address by the previous dev.\n    function dev(address _devaddr) public {\n        require(msg.sender == devaddr, \"dev: wut?\");\n        devaddr = _devaddr;\n    }\n}\n",
  "sourcePath": "/Users/yusakusenga/go/src/github.com/SwingbyProtocol/defi-contract/contracts/ChefLink.sol",
  "compiler": {
    "name": "solc",
    "version": "0.8.0+commit.c7dfd78e.Emscripten.clang"
  },
  "schemaVersion": "3.4.1",
  "updatedAt": "2021-06-11T12:53:19.438Z",
  "networkType": "ethereum",
  "devdoc": {
    "kind": "dev",
    "methods": {
      "owner()": {
        "details": "Returns the address of the current owner."
      },
      "renounceOwnership()": {
        "details": "Leaves the contract without owner. It will not be possible to call `onlyOwner` functions anymore. Can only be called by the current owner. NOTE: Renouncing ownership will leave the contract without an owner, thereby removing any functionality that is only available to the owner."
      },
      "transferOwnership(address)": {
        "details": "Transfers ownership of the contract to a new account (`newOwner`). Can only be called by the current owner."
      }
    },
    "version": 1
  },
  "userdoc": {
    "kind": "user",
    "methods": {},
    "version": 1
  }
}